:020000040000FA
:040000009EEF3FF040
:107F3C00036A0001CCEF3FF09E869D849D98000E55
:107F4C009B6E190E9A6E9C8E9D8A0E01988912005A
:107F5C008F0E0E01D317F00ED317000ED56F000E37
:107F6C00D76FF00ED917000ED86F1200899C0F0135
:107F7C001C8D090E0E01F86F898E0F011C9F170EB8
:107F8C000E01B06F88980F0114991200BCEC3FF0F1
:107F9C00AEEC3FF0A2EC3FF00E01C8ABD8EF3FF0D7
:107FAC00DAEF3FF0D2EF3FF098CF03F0020E026E03
:107FBC00450E016EAA0EE82EFED7012EFCD7022E1E
:107FCC00FAD70328996E0E01C8A9EFEF3FF0F1EF35
:107FDC003FF0E9EF3FF0020E026E450E016EAA0E65
:107FEC00E82EFED7012EFCD7022EFAD7D2EF3FF0A7
:047FFC0000EF00F0A2
:020000040020DA
:10000000FFFFFFFFFFFFFFFFFFFFFFFFFFFFFFFF00
:10001000FFFFFFFFFFFFFFFFFFFFFFFFFFFFFFFFF0
:10002000FFFFFFFFFFFFFFFFFFFFFFFFFFFFFFFFE0
:10003000FFFFFFFFFFFFFFFFFFFFFFFFFFFFFFFFD0
:10004000FFFFFFFFFFFFFFFFFFFFFFFFFFFFFFFFC0
:10005000FFFFFFFFFFFFFFFFFFFFFFFFFFFFFFFFB0
:10006000FFFFFFFFFFFFFFFFFFFFFFFFFFFFFFFFA0
:10007000FFFFFFFFFFFFFFFFFFFFFFFFFFFFFFFF90
:10008000FFFFFFFFFFFFFFFFFFFFFFFFFFFFFFFF80
:10009000FFFFFFFFFFFFFFFFFFFFFFFFFFFFFFFF70
:1000A000FFFFFFFFFFFFFFFFFFFFFFFFFFFFFFFF60
:1000B000FFFFFFFFFFFFFFFFFFFFFFFFFFFFFFFF50
:1000C000FFFFFFFFFFFFFFFFFFFFFFFFFFFFFFFF40
:1000D000FFFFFFFFFFFFFFFFFFFFFFFFFFFFFFFF30
:1000E000FFFFFFFFFFFFFFFFFFFFFFFFFFFFFFFF20
:1000F000FFFFFFFFFFFFFFFFFFFFFFFFFFFFFFFF10
:020000040030CA
:0C000000ECFFFFFF9FFFFFFFFFFFFFFF73
:00000001FF
